{
	"data": {
		"bytecode": {
			"linkReferences": {},
			"object": "608060405234801561001057600080fd5b50610122806100206000396000f3fe6080604052600436106049576000357c0100000000000000000000000000000000000000000000000000000000900463ffffffff168063190d7c5514604b578063d0e30db01460a2575b005b348015605657600080fd5b5060a060048036036040811015606b57600080fd5b8101908080359060200190929190803573ffffffffffffffffffffffffffffffffffffffff16906020019092919050505060aa565b005b60a860f4565b005b8073ffffffffffffffffffffffffffffffffffffffff166108fc839081150290604051600060405180830381858888f1935050505015801560ef573d6000803e3d6000fd5b505050565b56fea165627a7a72305820fbbdf22394d47dbbfb5ff55f23f8aedfcbe78a008b36c5cf7c2a2657bbe420a50029",
			"opcodes": "PUSH1 0x80 PUSH1 0x40 MSTORE CALLVALUE DUP1 ISZERO PUSH2 0x10 JUMPI PUSH1 0x0 DUP1 REVERT JUMPDEST POP PUSH2 0x122 DUP1 PUSH2 0x20 PUSH1 0x0 CODECOPY PUSH1 0x0 RETURN INVALID PUSH1 0x80 PUSH1 0x40 MSTORE PUSH1 0x4 CALLDATASIZE LT PUSH1 0x49 JUMPI PUSH1 0x0 CALLDATALOAD PUSH29 0x100000000000000000000000000000000000000000000000000000000 SWAP1 DIV PUSH4 0xFFFFFFFF AND DUP1 PUSH4 0x190D7C55 EQ PUSH1 0x4B JUMPI DUP1 PUSH4 0xD0E30DB0 EQ PUSH1 0xA2 JUMPI JUMPDEST STOP JUMPDEST CALLVALUE DUP1 ISZERO PUSH1 0x56 JUMPI PUSH1 0x0 DUP1 REVERT JUMPDEST POP PUSH1 0xA0 PUSH1 0x4 DUP1 CALLDATASIZE SUB PUSH1 0x40 DUP2 LT ISZERO PUSH1 0x6B JUMPI PUSH1 0x0 DUP1 REVERT JUMPDEST DUP2 ADD SWAP1 DUP1 DUP1 CALLDATALOAD SWAP1 PUSH1 0x20 ADD SWAP1 SWAP3 SWAP2 SWAP1 DUP1 CALLDATALOAD PUSH20 0xFFFFFFFFFFFFFFFFFFFFFFFFFFFFFFFFFFFFFFFF AND SWAP1 PUSH1 0x20 ADD SWAP1 SWAP3 SWAP2 SWAP1 POP POP POP PUSH1 0xAA JUMP JUMPDEST STOP JUMPDEST PUSH1 0xA8 PUSH1 0xF4 JUMP JUMPDEST STOP JUMPDEST DUP1 PUSH20 0xFFFFFFFFFFFFFFFFFFFFFFFFFFFFFFFFFFFFFFFF AND PUSH2 0x8FC DUP4 SWAP1 DUP2 ISZERO MUL SWAP1 PUSH1 0x40 MLOAD PUSH1 0x0 PUSH1 0x40 MLOAD DUP1 DUP4 SUB DUP2 DUP6 DUP9 DUP9 CALL SWAP4 POP POP POP POP ISZERO DUP1 ISZERO PUSH1 0xEF JUMPI RETURNDATASIZE PUSH1 0x0 DUP1 RETURNDATACOPY RETURNDATASIZE PUSH1 0x0 REVERT JUMPDEST POP POP POP JUMP JUMPDEST JUMP INVALID LOG1 PUSH6 0x627A7A723058 KECCAK256 0xfb 0xbd CALLCODE 0x23 SWAP5 0xd4 PUSH30 0xBBFB5FF55F23F8AEDFCBE78A008B36C5CF7C2A2657BBE420A50029000000 "
		},
		"gasEstimates": {
			"creation": {
				"codeDepositCost": "58000",
				"executionCost": "111",
				"totalCost": "58111"
			},
			"external": {
				"": "107",
				"deposit()": "131",
				"withdrawal(uint256,address)": "infinite"
			}
		},
		"methodIdentifiers": {
			"deposit()": "d0e30db0",
			"withdrawal(uint256,address)": "190d7c55"
		}
	},
	"abi": [
		{
			"constant": false,
			"inputs": [
				{
					"name": "amount",
					"type": "uint256"
				},
				{
					"name": "recepient",
					"type": "address"
				}
			],
			"name": "withdrawal",
			"outputs": [],
			"payable": false,
			"stateMutability": "nonpayable",
			"type": "function"
		},
		{
			"constant": false,
			"inputs": [],
			"name": "deposit",
			"outputs": [],
			"payable": true,
			"stateMutability": "payable",
			"type": "function"
		},
		{
			"payable": true,
			"stateMutability": "payable",
			"type": "fallback"
		}
	]
}